{
  "contractName": "ToDo",
  "abi": [
    {
      "inputs": [
        {
          "internalType": "uint256",
          "name": "sdate",
          "type": "uint256"
        },
        {
          "internalType": "uint256",
          "name": "edate",
          "type": "uint256"
        },
        {
          "internalType": "string",
          "name": "task",
          "type": "string"
        },
        {
          "internalType": "string",
          "name": "author",
          "type": "string"
        }
      ],
      "name": "addTask",
      "outputs": [],
      "stateMutability": "nonpayable",
      "type": "function"
    },
    {
      "inputs": [
        {
          "internalType": "uint256",
          "name": "index",
          "type": "uint256"
        }
      ],
      "name": "getTask",
      "outputs": [
        {
          "internalType": "uint256",
          "name": "",
          "type": "uint256"
        },
        {
          "internalType": "uint256",
          "name": "",
          "type": "uint256"
        },
        {
          "internalType": "uint256",
          "name": "",
          "type": "uint256"
        },
        {
          "internalType": "string",
          "name": "",
          "type": "string"
        },
        {
          "internalType": "string",
          "name": "",
          "type": "string"
        },
        {
          "internalType": "bool",
          "name": "",
          "type": "bool"
        }
      ],
      "stateMutability": "view",
      "type": "function"
    },
    {
      "inputs": [
        {
          "internalType": "uint256",
          "name": "index",
          "type": "uint256"
        }
      ],
      "name": "markTaskAsDone",
      "outputs": [],
      "stateMutability": "nonpayable",
      "type": "function"
    },
    {
      "inputs": [],
      "name": "getTotalTasks",
      "outputs": [
        {
          "internalType": "uint256",
          "name": "",
          "type": "uint256"
        }
      ],
      "stateMutability": "view",
      "type": "function"
    }
  ],
  "bytecode": "0x608060405234801561000f575f80fd5b50610af48061001d5f395ff3fe608060405234801561000f575f80fd5b506004361061004a575f3560e01c80631d65e77e1461004e5780633c93b90514610083578063633a44ec146100a15780638f735192146100bd575b5f80fd5b61006860048036038101906100639190610434565b6100d9565b60405161007a96959493929190610512565b60405180910390f35b61008b610299565b604051610098919061057f565b60405180910390f35b6100bb60048036038101906100b691906106c4565b6102a4565b005b6100d760048036038101906100d29190610434565b61036d565b005b5f805f6060805f80805490508710610126576040517f08c379a000000000000000000000000000000000000000000000000000000000815260040161011d906107aa565b60405180910390fd5b5f80888154811061013a576101396107c8565b5b905f5260205f2090600602019050805f0154816001015482600201548360030184600401856005015f9054906101000a900460ff1682805461017b90610822565b80601f01602080910402602001604051908101604052809291908181526020018280546101a790610822565b80156101f25780601f106101c9576101008083540402835291602001916101f2565b820191905f5260205f20905b8154815290600101906020018083116101d557829003601f168201915b5050505050925081805461020590610822565b80601f016020809104026020016040519081016040528092919081815260200182805461023190610822565b801561027c5780601f106102535761010080835404028352916020019161027c565b820191905f5260205f20905b81548152906001019060200180831161025f57829003601f168201915b505050505091509650965096509650965096505091939550919395565b5f8080549050905090565b5f6040518060c001604052805f8054905081526020018681526020018581526020018481526020018381526020015f1515815250908060018154018082558091505060019003905f5260205f2090600602015f909190919091505f820151815f01556020820151816001015560408201518160020155606082015181600301908161032f91906109ef565b50608082015181600401908161034591906109ef565b5060a0820151816005015f6101000a81548160ff021916908315150217905550505050505050565b5f8054905081106103b3576040517f08c379a00000000000000000000000000000000000000000000000000000000081526004016103aa906107aa565b60405180910390fd5b60015f82815481106103c8576103c76107c8565b5b905f5260205f2090600602016005015f6101000a81548160ff02191690831515021790555050565b5f604051905090565b5f80fd5b5f80fd5b5f819050919050565b61041381610401565b811461041d575f80fd5b50565b5f8135905061042e8161040a565b92915050565b5f60208284031215610449576104486103f9565b5b5f61045684828501610420565b91505092915050565b61046881610401565b82525050565b5f81519050919050565b5f82825260208201905092915050565b5f5b838110156104a557808201518184015260208101905061048a565b5f8484015250505050565b5f601f19601f8301169050919050565b5f6104ca8261046e565b6104d48185610478565b93506104e4818560208601610488565b6104ed816104b0565b840191505092915050565b5f8115159050919050565b61050c816104f8565b82525050565b5f60c0820190506105255f83018961045f565b610532602083018861045f565b61053f604083018761045f565b818103606083015261055181866104c0565b9050818103608083015261056581856104c0565b905061057460a0830184610503565b979650505050505050565b5f6020820190506105925f83018461045f565b92915050565b5f80fd5b5f80fd5b7f4e487b71000000000000000000000000000000000000000000000000000000005f52604160045260245ffd5b6105d6826104b0565b810181811067ffffffffffffffff821117156105f5576105f46105a0565b5b80604052505050565b5f6106076103f0565b905061061382826105cd565b919050565b5f67ffffffffffffffff821115610632576106316105a0565b5b61063b826104b0565b9050602081019050919050565b828183375f83830152505050565b5f61066861066384610618565b6105fe565b9050828152602081018484840111156106845761068361059c565b5b61068f848285610648565b509392505050565b5f82601f8301126106ab576106aa610598565b5b81356106bb848260208601610656565b91505092915050565b5f805f80608085870312156106dc576106db6103f9565b5b5f6106e987828801610420565b94505060206106fa87828801610420565b935050604085013567ffffffffffffffff81111561071b5761071a6103fd565b5b61072787828801610697565b925050606085013567ffffffffffffffff811115610748576107476103fd565b5b61075487828801610697565b91505092959194509250565b7f496e76616c696420696e646578000000000000000000000000000000000000005f82015250565b5f610794600d83610478565b915061079f82610760565b602082019050919050565b5f6020820190508181035f8301526107c181610788565b9050919050565b7f4e487b71000000000000000000000000000000000000000000000000000000005f52603260045260245ffd5b7f4e487b71000000000000000000000000000000000000000000000000000000005f52602260045260245ffd5b5f600282049050600182168061083957607f821691505b60208210810361084c5761084b6107f5565b5b50919050565b5f819050815f5260205f209050919050565b5f6020601f8301049050919050565b5f82821b905092915050565b5f600883026108ae7fffffffffffffffffffffffffffffffffffffffffffffffffffffffffffffffff82610873565b6108b88683610873565b95508019841693508086168417925050509392505050565b5f819050919050565b5f6108f36108ee6108e984610401565b6108d0565b610401565b9050919050565b5f819050919050565b61090c836108d9565b610920610918826108fa565b84845461087f565b825550505050565b5f90565b610934610928565b61093f818484610903565b505050565b5b81811015610962576109575f8261092c565b600181019050610945565b5050565b601f8211156109a75761097881610852565b61098184610864565b81016020851015610990578190505b6109a461099c85610864565b830182610944565b50505b505050565b5f82821c905092915050565b5f6109c75f19846008026109ac565b1980831691505092915050565b5f6109df83836109b8565b9150826002028217905092915050565b6109f88261046e565b67ffffffffffffffff811115610a1157610a106105a0565b5b610a1b8254610822565b610a26828285610966565b5f60209050601f831160018114610a57575f8415610a45578287015190505b610a4f85826109d4565b865550610ab6565b601f198416610a6586610852565b5f5b82811015610a8c57848901518255600182019150602085019450602081019050610a67565b86831015610aa95784890151610aa5601f8916826109b8565b8355505b6001600288020188555050505b50505050505056fea264697066735822122059f63fa3cec8d12c4396ca7a93a4dc939a7f2140210cbf6c08e9e5a527ba2f7064736f6c63430008150033",
  "immutableReferences": {},
  "source": "// SPDX-License-Identifier: MIT\npragma solidity ^0.8.0;\n\ncontract ToDo {\n    struct Task {\n        uint id;\n        uint sdate;\n        uint edate;\n        string task;  \n        string author;\n        bool done;\n    }\n\n    Task[] private tasks;  // Use `private` to restrict direct access\n\n    function addTask(uint sdate, uint edate, string memory task, string memory author) public {\n        tasks.push(Task({\n            id: tasks.length,\n            sdate: sdate,\n            edate: edate,\n            task: task,\n            author: author,\n            done: false\n        }));\n    }\n\n    function getTask(uint index) public view returns (uint, uint, uint, string memory, string memory, bool) {\n        require(index < tasks.length, \"Invalid index\");\n        Task storage t = tasks[index];\n        return (t.id, t.sdate, t.edate, t.task, t.author, t.done);\n    }\n\n    function markTaskAsDone(uint index) public {\n        require(index < tasks.length, \"Invalid index\");\n        tasks[index].done = true;\n    }\n\n    function getTotalTasks() public view returns (uint) {\n        return tasks.length;\n    }\n}\n",
  "sourcePath": "C:\\Users\\Anil Kumar Ojha\\todolistweb3\\contracts\\ToDo.sol",
  "compiler": {
    "name": "solc",
    "version": "0.8.21+commit.d9974bed.Emscripten.clang"
  },
  "schemaVersion": "3.4.16",
  "updatedAt": "2025-02-16T14:02:58.783Z",
  "devdoc": {
    "kind": "dev",
    "methods": {},
    "version": 1
  },
  "userdoc": {
    "kind": "user",
    "methods": {},
    "version": 1
  }
}